:020000040000FA
:0400000064EF00F0B9
:020004000000FA
:0400080051EF00F0C4
:0400180058EF00F0AD
:04001C00050E636FFB
:10002000640E646F200E656F000E666F6C0ED36EEB
:10003000836A8C6AFF0E956E8A6AFF0E936EF28C4D
:0C004000F28E3DEC00F026EC00F0120007
:04004C00F294000E1C
:10005000D56EF29A1200F294652F08D0662B030E2B
:100060008C16FC0E66158C12230E656FD59EEC0E59
:0A007000D76E780ED66ED58E120002
:06007A00F292F288F19EF3
:10008000F19C1200F292F27A64678C6A000E956E0F
:10009000010E646FD59EEC0ED76E780ED66ED58E9F
:0200A00012004C
:0E00A200F2B242EC00F0F2B42BEC00F01100D0
:1000B000676FD8CF68F0E0CF69F069C0E0FF6751A3
:0800C00068C0D8FF1000120017
:0800C8000EEC00F0642FFED7DE
:1000D00000D0632F02D004D0FFD774EC00F0F6D725
:0800E0008C72050E636FF2D76C
:0800E8003F0E6A6F9D0E6B6F65
:1000F0006A2F7CEF00F06B2F78EF00F080EF00F0BC
:020100001200EB
:020000040030CA
:0100010009F5
:0100020019E4
:0100030000FC
:010005008971
:010006008079
:010008000FE8
:01000900C036
:01000A000FE6
:01000B00E014
:01000C000FE4
:01000D0040B2
:0200000400F00A
:040000004D434850D4
:00000001FF
